{
  "contractName": "ProductManagement",
  "abi": [
    {
      "constant": true,
      "inputs": [],
      "name": "part_count",
      "outputs": [
        {
          "name": "",
          "type": "uint256"
        }
      ],
      "payable": false,
      "stateMutability": "view",
      "type": "function",
      "signature": "0x22cae7d2"
    },
    {
      "constant": true,
      "inputs": [],
      "name": "vehicle_count",
      "outputs": [
        {
          "name": "",
          "type": "uint256"
        }
      ],
      "payable": false,
      "stateMutability": "view",
      "type": "function",
      "signature": "0x5be00d8d"
    },
    {
      "constant": true,
      "inputs": [],
      "name": "batch_count",
      "outputs": [
        {
          "name": "",
          "type": "uint256"
        }
      ],
      "payable": false,
      "stateMutability": "view",
      "type": "function",
      "signature": "0x8fae7b6d"
    },
    {
      "constant": true,
      "inputs": [
        {
          "name": "",
          "type": "uint256"
        }
      ],
      "name": "transfers",
      "outputs": [
        {
          "name": "id",
          "type": "uint256"
        },
        {
          "name": "product_id",
          "type": "uint256"
        },
        {
          "name": "p_serial_number",
          "type": "string"
        },
        {
          "name": "product_type",
          "type": "string"
        },
        {
          "name": "previous_owner",
          "type": "address"
        },
        {
          "name": "new_owner",
          "type": "address"
        },
        {
          "name": "timestamp",
          "type": "uint256"
        }
      ],
      "payable": false,
      "stateMutability": "view",
      "type": "function",
      "signature": "0x9377d711"
    },
    {
      "constant": true,
      "inputs": [],
      "name": "test_var",
      "outputs": [
        {
          "name": "",
          "type": "uint256"
        }
      ],
      "payable": false,
      "stateMutability": "view",
      "type": "function",
      "signature": "0x9db0b4e6"
    },
    {
      "constant": true,
      "inputs": [
        {
          "name": "",
          "type": "uint256"
        }
      ],
      "name": "batches",
      "outputs": [
        {
          "name": "id",
          "type": "uint256"
        },
        {
          "name": "order_id",
          "type": "uint256"
        },
        {
          "name": "quantity",
          "type": "uint256"
        },
        {
          "name": "cost",
          "type": "uint256"
        },
        {
          "name": "product",
          "type": "string"
        },
        {
          "name": "manufacturer",
          "type": "string"
        },
        {
          "name": "status",
          "type": "string"
        },
        {
          "name": "sender",
          "type": "address"
        },
        {
          "name": "recipient",
          "type": "address"
        }
      ],
      "payable": false,
      "stateMutability": "view",
      "type": "function",
      "signature": "0xb32c4d8d"
    },
    {
      "constant": true,
      "inputs": [
        {
          "name": "",
          "type": "uint256"
        }
      ],
      "name": "vehicles",
      "outputs": [
        {
          "name": "id",
          "type": "uint256"
        },
        {
          "name": "vin",
          "type": "string"
        },
        {
          "name": "manufacturer",
          "type": "string"
        },
        {
          "name": "model",
          "type": "string"
        },
        {
          "name": "place_of_manufacture",
          "type": "string"
        },
        {
          "name": "part_count",
          "type": "uint256"
        },
        {
          "name": "owner",
          "type": "address"
        }
      ],
      "payable": false,
      "stateMutability": "view",
      "type": "function",
      "signature": "0xb8ba95fa"
    },
    {
      "constant": true,
      "inputs": [
        {
          "name": "",
          "type": "uint256"
        }
      ],
      "name": "parts",
      "outputs": [
        {
          "name": "id",
          "type": "uint256"
        },
        {
          "name": "serial_number",
          "type": "string"
        },
        {
          "name": "part_type",
          "type": "string"
        },
        {
          "name": "model",
          "type": "string"
        },
        {
          "name": "manufacturer",
          "type": "string"
        },
        {
          "name": "place_of_manufacture",
          "type": "string"
        },
        {
          "name": "vehicle_id",
          "type": "uint256"
        },
        {
          "name": "owner",
          "type": "address"
        }
      ],
      "payable": false,
      "stateMutability": "view",
      "type": "function",
      "signature": "0xc9eb4662"
    },
    {
      "constant": true,
      "inputs": [],
      "name": "transfer_count",
      "outputs": [
        {
          "name": "",
          "type": "uint256"
        }
      ],
      "payable": false,
      "stateMutability": "view",
      "type": "function",
      "signature": "0xea23c76e"
    },
    {
      "constant": false,
      "inputs": [
        {
          "name": "serial_number",
          "type": "string"
        },
        {
          "name": "part_type",
          "type": "string"
        },
        {
          "name": "model",
          "type": "string"
        },
        {
          "name": "manufacturer",
          "type": "string"
        },
        {
          "name": "place_of_manufacture",
          "type": "string"
        },
        {
          "name": "owner",
          "type": "address"
        }
      ],
      "name": "createPart",
      "outputs": [],
      "payable": false,
      "stateMutability": "nonpayable",
      "type": "function",
      "signature": "0xe9e68b70"
    },
    {
      "constant": false,
      "inputs": [
        {
          "name": "vin",
          "type": "string"
        },
        {
          "name": "manufacturer",
          "type": "string"
        },
        {
          "name": "model",
          "type": "string"
        },
        {
          "name": "place_of_manufacture",
          "type": "string"
        },
        {
          "name": "owner",
          "type": "address"
        }
      ],
      "name": "createVehicle",
      "outputs": [],
      "payable": false,
      "stateMutability": "nonpayable",
      "type": "function",
      "signature": "0xb39abe0e"
    },
    {
      "constant": false,
      "inputs": [
        {
          "name": "order_id",
          "type": "uint256"
        },
        {
          "name": "quantity",
          "type": "uint256"
        },
        {
          "name": "cost",
          "type": "uint256"
        },
        {
          "name": "product",
          "type": "string"
        },
        {
          "name": "manufacturer",
          "type": "string"
        },
        {
          "name": "sender",
          "type": "address"
        },
        {
          "name": "recipient",
          "type": "address"
        }
      ],
      "name": "createBatch",
      "outputs": [],
      "payable": false,
      "stateMutability": "nonpayable",
      "type": "function",
      "signature": "0xa17d92bd"
    },
    {
      "constant": false,
      "inputs": [
        {
          "name": "part_id",
          "type": "uint256"
        },
        {
          "name": "vehicle_id",
          "type": "uint256"
        },
        {
          "name": "user",
          "type": "address"
        }
      ],
      "name": "associatePart",
      "outputs": [],
      "payable": false,
      "stateMutability": "nonpayable",
      "type": "function",
      "signature": "0x20b66192"
    },
    {
      "constant": true,
      "inputs": [
        {
          "name": "vehicle_id",
          "type": "uint256"
        },
        {
          "name": "key",
          "type": "uint256"
        }
      ],
      "name": "getVehiclePart",
      "outputs": [
        {
          "name": "",
          "type": "uint256"
        }
      ],
      "payable": false,
      "stateMutability": "view",
      "type": "function",
      "signature": "0xc7d71fda"
    },
    {
      "constant": false,
      "inputs": [
        {
          "name": "previous_owner",
          "type": "address"
        },
        {
          "name": "new_owner",
          "type": "address"
        },
        {
          "name": "part_id",
          "type": "uint256"
        }
      ],
      "name": "transferPart",
      "outputs": [],
      "payable": false,
      "stateMutability": "nonpayable",
      "type": "function",
      "signature": "0x7ca3666b"
    },
    {
      "constant": false,
      "inputs": [
        {
          "name": "new_owner",
          "type": "address"
        },
        {
          "name": "batch_id",
          "type": "uint256"
        }
      ],
      "name": "recieveBatch",
      "outputs": [],
      "payable": false,
      "stateMutability": "nonpayable",
      "type": "function",
      "signature": "0x4f20d39c"
    },
    {
      "constant": false,
      "inputs": [
        {
          "name": "previous_owner",
          "type": "address"
        },
        {
          "name": "new_owner",
          "type": "address"
        },
        {
          "name": "id",
          "type": "uint256"
        }
      ],
      "name": "transferVehicle",
      "outputs": [],
      "payable": false,
      "stateMutability": "nonpayable",
      "type": "function",
      "signature": "0x394f453d"
    }
  ],
  "bytecode": "0x608060405260008055600060015560006002556000600355600060045534801561002857600080fd5b506124a5806100386000396000f3fe6080604052600436106100f05763ffffffff7c010000000000000000000000000000000000000000000000000000000060003504166320b6619281146100f557806322cae7d214610136578063394f453d1461015d5780634f20d39c146101a05780635be00d8d146101d95780637ca3666b146101ee5780638fae7b6d146102315780639377d711146102465780639db0b4e614610395578063a17d92bd146103aa578063b32c4d8d1461050d578063b39abe0e146106c9578063b8ba95fa1461091c578063c7d71fda14610b17578063c9eb466214610b47578063e9e68b7014610da8578063ea23c76e14611082575b600080fd5b34801561010157600080fd5b506101346004803603606081101561011857600080fd5b5080359060208101359060400135600160a060020a0316611097565b005b34801561014257600080fd5b5061014b611288565b60408051918252519081900360200190f35b34801561016957600080fd5b506101346004803603606081101561018057600080fd5b50600160a060020a0381358116916020810135909116906040013561128e565b3480156101ac57600080fd5b50610134600480360360408110156101c357600080fd5b50600160a060020a0381351690602001356113ae565b3480156101e557600080fd5b5061014b6115f9565b3480156101fa57600080fd5b506101346004803603606081101561021157600080fd5b50600160a060020a038135811691602081013590911690604001356115ff565b34801561023d57600080fd5b5061014b611729565b34801561025257600080fd5b506102706004803603602081101561026957600080fd5b503561172f565b60405180888152602001878152602001806020018060200186600160a060020a0316600160a060020a0316815260200185600160a060020a0316600160a060020a03168152602001848152602001838103835288818151815260200191508051906020019080838360005b838110156102f35781810151838201526020016102db565b50505050905090810190601f1680156103205780820380516001836020036101000a031916815260200191505b50838103825287518152875160209182019189019080838360005b8381101561035357818101518382015260200161033b565b50505050905090810190601f1680156103805780820380516001836020036101000a031916815260200191505b50995050505050505050505060405180910390f35b3480156103a157600080fd5b5061014b611887565b3480156103b657600080fd5b50610134600480360360e08110156103cd57600080fd5b813591602081013591604082013591908101906080810160608201356401000000008111156103fb57600080fd5b82018360208201111561040d57600080fd5b8035906020019184600183028401116401000000008311171561042f57600080fd5b91908080601f016020809104026020016040519081016040528093929190818152602001838380828437600092019190915250929594936020810193503591505064010000000081111561048257600080fd5b82018360208201111561049457600080fd5b803590602001918460018302840111640100000000831117156104b657600080fd5b91908080601f01602080910402602001604051908101604052809392919081815260200183838082843760009201919091525092955050600160a060020a03833581169450602090930135909216915061188d9050565b34801561051957600080fd5b506105376004803603602081101561053057600080fd5b50356119bb565b604051808a815260200189815260200188815260200187815260200180602001806020018060200186600160a060020a0316600160a060020a0316815260200185600160a060020a0316600160a060020a03168152602001848103845289818151815260200191508051906020019080838360005b838110156105c45781810151838201526020016105ac565b50505050905090810190601f1680156105f15780820380516001836020036101000a031916815260200191505b5084810383528851815288516020918201918a019080838360005b8381101561062457818101518382015260200161060c565b50505050905090810190601f1680156106515780820380516001836020036101000a031916815260200191505b50848103825287518152875160209182019189019080838360005b8381101561068457818101518382015260200161066c565b50505050905090810190601f1680156106b15780820380516001836020036101000a031916815260200191505b509c5050505050505050505050505060405180910390f35b3480156106d557600080fd5b50610134600480360360a08110156106ec57600080fd5b81019060208101813564010000000081111561070757600080fd5b82018360208201111561071957600080fd5b8035906020019184600183028401116401000000008311171561073b57600080fd5b91908080601f016020809104026020016040519081016040528093929190818152602001838380828437600092019190915250929594936020810193503591505064010000000081111561078e57600080fd5b8201836020820111156107a057600080fd5b803590602001918460018302840111640100000000831117156107c257600080fd5b91908080601f016020809104026020016040519081016040528093929190818152602001838380828437600092019190915250929594936020810193503591505064010000000081111561081557600080fd5b82018360208201111561082757600080fd5b8035906020019184600183028401116401000000008311171561084957600080fd5b91908080601f016020809104026020016040519081016040528093929190818152602001838380828437600092019190915250929594936020810193503591505064010000000081111561089c57600080fd5b8201836020820111156108ae57600080fd5b803590602001918460018302840111640100000000831117156108d057600080fd5b91908080601f01602080910402602001604051908101604052809392919081815260200183838082843760009201919091525092955050509035600160a060020a03169150611bc29050565b34801561092857600080fd5b506109466004803603602081101561093f57600080fd5b5035611cb7565b604051808881526020018060200180602001806020018060200187815260200186600160a060020a0316600160a060020a0316815260200185810385528b818151815260200191508051906020019080838360005b838110156109b357818101518382015260200161099b565b50505050905090810190601f1680156109e05780820380516001836020036101000a031916815260200191505b5085810384528a5181528a516020918201918c019080838360005b83811015610a135781810151838201526020016109fb565b50505050905090810190601f168015610a405780820380516001836020036101000a031916815260200191505b5085810383528951815289516020918201918b019080838360005b83811015610a73578181015183820152602001610a5b565b50505050905090810190601f168015610aa05780820380516001836020036101000a031916815260200191505b5085810382528851815288516020918201918a019080838360005b83811015610ad3578181015183820152602001610abb565b50505050905090810190601f168015610b005780820380516001836020036101000a031916815260200191505b509b50505050505050505050505060405180910390f35b348015610b2357600080fd5b5061014b60048036036040811015610b3a57600080fd5b5080359060200135611f26565b348015610b5357600080fd5b50610b7160048036036020811015610b6a57600080fd5b5035611f46565b60405180898152602001806020018060200180602001806020018060200188815260200187600160a060020a0316600160a060020a0316815260200186810386528d818151815260200191508051906020019080838360005b83811015610be2578181015183820152602001610bca565b50505050905090810190601f168015610c0f5780820380516001836020036101000a031916815260200191505b5086810385528c5181528c516020918201918e019080838360005b83811015610c42578181015183820152602001610c2a565b50505050905090810190601f168015610c6f5780820380516001836020036101000a031916815260200191505b5086810384528b5181528b516020918201918d019080838360005b83811015610ca2578181015183820152602001610c8a565b50505050905090810190601f168015610ccf5780820380516001836020036101000a031916815260200191505b5086810383528a5181528a516020918201918c019080838360005b83811015610d02578181015183820152602001610cea565b50505050905090810190601f168015610d2f5780820380516001836020036101000a031916815260200191505b5086810382528951815289516020918201918b019080838360005b83811015610d62578181015183820152602001610d4a565b50505050905090810190601f168015610d8f5780820380516001836020036101000a031916815260200191505b509d505050505050505050505050505060405180910390f35b348015610db457600080fd5b50610134600480360360c0811015610dcb57600080fd5b810190602081018135640100000000811115610de657600080fd5b820183602082011115610df857600080fd5b80359060200191846001830284011164010000000083111715610e1a57600080fd5b91908080601f0160208091040260200160405190810160405280939291908181526020018383808284376000920191909152509295949360208101935035915050640100000000811115610e6d57600080fd5b820183602082011115610e7f57600080fd5b80359060200191846001830284011164010000000083111715610ea157600080fd5b91908080601f0160208091040260200160405190810160405280939291908181526020018383808284376000920191909152509295949360208101935035915050640100000000811115610ef457600080fd5b820183602082011115610f0657600080fd5b80359060200191846001830284011164010000000083111715610f2857600080fd5b91908080601f0160208091040260200160405190810160405280939291908181526020018383808284376000920191909152509295949360208101935035915050640100000000811115610f7b57600080fd5b820183602082011115610f8d57600080fd5b80359060200191846001830284011164010000000083111715610faf57600080fd5b91908080601f016020809104026020016040519081016040528093929190818152602001838380828437600092019190915250929594936020810193503591505064010000000081111561100257600080fd5b82018360208201111561101457600080fd5b8035906020019184600183028401116401000000008311171561103657600080fd5b91908080601f01602080910402602001604051908101604052809392919081815260200183838082843760009201919091525092955050509035600160a060020a031691506122459050565b34801561108e57600080fd5b5061014b612363565b600083815260066020526040902060070154600160a060020a0382811691161480156110df5750600082815260076020526040902060060154600160a060020a038281169116145b156111f65760008381526006602081905260409091200154151561113b576000838152600660208181526040808420909201859055848352600780825282842060058101805460010190819055855201905290208390556111f1565b60008381526006602081815260408084209092015485845260079091529120600501546001908101905b8181116111b457600083815260076020818152604080842085855290920190529020548614156111ac57600083815260076020818152604080842085855290920190528120555b600101611165565b5050506000838152600660208181526040808420909201859055848352600780825282842060058101805460010190819055855201905290208390555b611283565b604080517f08c379a000000000000000000000000000000000000000000000000000000000815260206004820152603160248201527f5061727420616e642f6f722076656869636c6520646f6573206e6f742062656c60448201527f6f6e6720746f2074686973207573657221000000000000000000000000000000606482015290519081900360840190fd5b505050565b60015481565b6000805460019081018083558083526005602081815260408086209384559284018690558585526007815282852085548652919052922091810180546112e893600290810193821615610100026000190190911604612369565b50604080518082018252600781527f76656869636c65000000000000000000000000000000000000000000000000006020808301918252600080548152600590915292909220905161134092600390920191906123ee565b506000805481526005602081815260408084206004018054600160a060020a03988916600160a060020a031991821617909155845485528185209093018054969097169583168617909655825483528583204260069182015593835260079052939020018054909216179055565b60008181526008602081905260409091200154600160a060020a03838116911614156115685760008054600101815560408051808201825260088082527f726563696576656400000000000000000000000000000000000000000000000060208084019182528686529190915291909220915161142f9260060191906123ee565b5060008054808252600560208181526040808520938455600190930185905582518084018452600e81527f6e6f74206170706c696361626c65000000000000000000000000000000000000818301908152855486529290915291909220905161149e92600290920191906123ee565b5060408051808201825260058082527f6261746368000000000000000000000000000000000000000000000000000000602080840191825260008054815292905292902090516114f492600390920191906123ee565b5060008181526008602081815260408084206007810154855486526005938490528286206004018054600160a060020a03928316600160a060020a031991821617909155919094015485548652828620909301805493909416921691909117909155815482529020426006909101556115f5565b604080517f08c379a000000000000000000000000000000000000000000000000000000000815260206004820152602860248201527f596f7520617265206e6f742074686520726563697069656e74206f662074686960448201527f7320626174636821000000000000000000000000000000000000000000000000606482015290519081900360840190fd5b5050565b60025481565b6000818152600660209081526040808320600781018054600160a060020a031916600160a060020a03881617905583546001908101808655808652600590945282852093845592830185905583548452922091810180546116759360029081019361010090831615026000190190911604612369565b50604080518082018252600481527f7061727400000000000000000000000000000000000000000000000000000000602080830191825260008054815260059091529290922090516116cd92600390920191906123ee565b50506000805481526005602081905260408083206004018054600160a060020a0319908116600160a060020a03978816179091558354845281842090920180549092169390941692909217909155805481522042600690910155565b60035481565b60056020908152600091825260409182902080546001808301546002808501805488519481161561010002600019011691909104601f8101879004870284018701909752868352929590949192918301828280156117ce5780601f106117a3576101008083540402835291602001916117ce565b820191906000526020600020905b8154815290600101906020018083116117b157829003601f168201915b5050505060038301805460408051602060026001851615610100026000190190941693909304601f810184900484028201840190925281815294959493509083018282801561185e5780601f106118335761010080835404028352916020019161185e565b820191906000526020600020905b81548152906001019060200180831161184157829003601f168201915b50505050600483015460058401546006909401549293600160a060020a03918216939116915087565b60045481565b6003805460019081018083556000818152600860209081526040808320938455929093018b9055835481528181206002018a90558354815281812084018990559254835290912085516118e8926004909201918701906123ee565b5060035460009081526008602090815260409091208451611911926005909201918601906123ee565b50604080518082018252600a81527f756e72656369657665640000000000000000000000000000000000000000000060208083019182526003546000908152600890915292909220905161196b92600690920191906123ee565b506003805460009081526008602081905260408083206007018054600160a060020a03978816600160a060020a031991821617909155935483529091200180549290931691161790555050505050565b6008602052806000526040600020600091509050806000015490806001015490806002015490806003015490806004018054600181600116156101000203166002900480601f016020809104026020016040519081016040528092919081815260200182805460018160011615610100020316600290048015611a7f5780601f10611a5457610100808354040283529160200191611a7f565b820191906000526020600020905b815481529060010190602001808311611a6257829003601f168201915b5050505060058301805460408051602060026001851615610100026000190190941693909304601f8101849004840282018401909252818152949594935090830182828015611b0f5780601f10611ae457610100808354040283529160200191611b0f565b820191906000526020600020905b815481529060010190602001808311611af257829003601f168201915b5050505060068301805460408051602060026001851615610100026000190190941693909304601f8101849004840282018401909252818152949594935090830182828015611b9f5780601f10611b7457610100808354040283529160200191611b9f565b820191906000526020600020905b815481529060010190602001808311611b8257829003601f168201915b5050505060078301546008909301549192600160a060020a039081169216905089565b6002805460019081019182905560008281526007602090815260409091209283558751611bf69390920191908801906123ee565b506002805460009081526007602090815260409091208651611c1f9391909101918701906123ee565b5060025460009081526007602090815260409091208451611c48926003909201918601906123ee565b5060025460009081526007602090815260409091208351611c71926004909201918501906123ee565b506002805460009081526007602052604080822060050182905591548152206006018054600160a060020a031916600160a060020a039290921691909117905550505050565b6007602090815260009182526040918290208054600180830180548651600293821615610100026000190190911692909204601f810186900486028301860190965285825291949293909290830182828015611d545780601f10611d2957610100808354040283529160200191611d54565b820191906000526020600020905b815481529060010190602001808311611d3757829003601f168201915b50505060028085018054604080516020601f6000196101006001871615020190941695909504928301859004850281018501909152818152959695945090925090830182828015611de65780601f10611dbb57610100808354040283529160200191611de6565b820191906000526020600020905b815481529060010190602001808311611dc957829003601f168201915b5050505060038301805460408051602060026001851615610100026000190190941693909304601f8101849004840282018401909252818152949594935090830182828015611e765780601f10611e4b57610100808354040283529160200191611e76565b820191906000526020600020905b815481529060010190602001808311611e5957829003601f168201915b5050505060048301805460408051602060026001851615610100026000190190941693909304601f8101849004840282018401909252818152949594935090830182828015611f065780601f10611edb57610100808354040283529160200191611f06565b820191906000526020600020905b815481529060010190602001808311611ee957829003601f168201915b505050506005830154600690930154919291600160a060020a0316905087565b600091825260076020818152604080852093855292909101905290205490565b6006602090815260009182526040918290208054600180830180548651600293821615610100026000190190911692909204601f810186900486028301860190965285825291949293909290830182828015611fe35780601f10611fb857610100808354040283529160200191611fe3565b820191906000526020600020905b815481529060010190602001808311611fc657829003601f168201915b50505060028085018054604080516020601f60001961010060018716150201909416959095049283018590048502810185019091528181529596959450909250908301828280156120755780601f1061204a57610100808354040283529160200191612075565b820191906000526020600020905b81548152906001019060200180831161205857829003601f168201915b5050505060038301805460408051602060026001851615610100026000190190941693909304601f81018490048402820184019092528181529495949350908301828280156121055780601f106120da57610100808354040283529160200191612105565b820191906000526020600020905b8154815290600101906020018083116120e857829003601f168201915b5050505060048301805460408051602060026001851615610100026000190190941693909304601f81018490048402820184019092528181529495949350908301828280156121955780601f1061216a57610100808354040283529160200191612195565b820191906000526020600020905b81548152906001019060200180831161217857829003601f168201915b5050505060058301805460408051602060026001851615610100026000190190941693909304601f81018490048402820184019092528181529495949350908301828280156122255780601f106121fa57610100808354040283529160200191612225565b820191906000526020600020905b81548152906001019060200180831161220857829003601f168201915b505050506006830154600790930154919291600160a060020a0316905088565b60018054810180825560008181526006602090815260409091209182558851612276939290920191908901906123ee565b506001546000908152600660209081526040909120865161229f926002909201918801906123ee565b50600154600090815260066020908152604090912085516122c8926003909201918701906123ee565b50600154600090815260066020908152604090912084516122f1926004909201918601906123ee565b506001546000908152600660209081526040909120835161231a926005909201918501906123ee565b5060018054600090815260066020819052604080832090910182905591548152206007018054600160a060020a031916600160a060020a03929092169190911790555050505050565b60005481565b828054600181600116156101000203166002900490600052602060002090601f016020900481019282601f106123a257805485556123de565b828001600101855582156123de57600052602060002091601f016020900482015b828111156123de5782548255916001019190600101906123c3565b506123ea92915061245c565b5090565b828054600181600116156101000203166002900490600052602060002090601f016020900481019282601f1061242f57805160ff19168380011785556123de565b828001600101855582156123de579182015b828111156123de578251825591602001919060010190612441565b61247691905b808211156123ea5760008155600101612462565b9056fea165627a7a7230582054464b00984134df1b1321db682b124b5efdb231f173c6e0aa41e38ff0e605660029",
  "source": "pragma solidity ^0.5.0;\r\n\r\ncontract ProductManagement  {\r\n\r\n    uint public transfer_count = 0;\r\n    uint public part_count = 0;\r\n    uint public vehicle_count = 0;\r\n    uint public batch_count = 0;\r\n    uint public test_var = 0;\r\n\r\n    mapping(uint => transfer) public transfers;\r\n    mapping(uint => part) public parts;\r\n    mapping(uint => vehicle) public vehicles;\r\n    mapping(uint => batch) public batches;\r\n\r\n    struct transfer {\r\n      uint id;\r\n      uint product_id;\r\n      string p_serial_number;\r\n      string product_type;\r\n      address previous_owner;\r\n      address new_owner;\r\n      uint timestamp;\r\n    }\r\n\r\n    struct part {\r\n      uint id;\r\n      string serial_number;\r\n      string part_type;\r\n      string model;\r\n      string manufacturer;\r\n      string place_of_manufacture;\r\n      uint vehicle_id;\r\n      address owner;\r\n    }\r\n\r\n    struct vehicle {\r\n      uint id;\r\n      string vin;\r\n      string manufacturer;\r\n      string model;\r\n      string place_of_manufacture;\r\n      uint part_count;\r\n      address owner;\r\n      mapping (uint => uint) parts;\r\n    }\r\n\r\n\r\n    struct batch {\r\n      uint id;\r\n      uint order_id;\r\n      uint quantity;\r\n      uint cost;\r\n      string product;\r\n      string manufacturer;\r\n      string status;\r\n      address sender;\r\n      address recipient;\r\n    }\r\n\r\n    function createPart(string memory serial_number, string memory part_type,\r\n      string memory model, string memory manufacturer, string memory\r\n      place_of_manufacture, address owner) public {\r\n      part_count++;\r\n      parts[part_count].id = part_count;\r\n      parts[part_count].serial_number = serial_number;\r\n      parts[part_count].part_type = part_type;\r\n      parts[part_count].model = model;\r\n      parts[part_count].manufacturer = manufacturer;\r\n      parts[part_count].place_of_manufacture = place_of_manufacture;\r\n      parts[part_count].vehicle_id = 0;\r\n      parts[part_count].owner = owner;\r\n    }\r\n\r\n    function createVehicle(string memory vin, string memory manufacturer, string memory model,\r\n        string memory place_of_manufacture, address owner)\r\n        public {\r\n        vehicle_count++;\r\n        vehicles[vehicle_count].id = vehicle_count;\r\n        vehicles[vehicle_count].vin = vin;\r\n        vehicles[vehicle_count].manufacturer = manufacturer;\r\n        vehicles[vehicle_count].model = model;\r\n        vehicles[vehicle_count].place_of_manufacture = place_of_manufacture;\r\n        vehicles[vehicle_count].part_count = 0;\r\n        vehicles[vehicle_count].owner = owner;\r\n    }\r\n\r\n    function createBatch(uint order_id, uint quantity, uint cost, string memory product,\r\n        string memory manufacturer, address sender, address recipient) public {\r\n        batch_count++;\r\n        batches[batch_count].id = batch_count;\r\n        batches[batch_count].order_id = order_id;\r\n        batches[batch_count].quantity = quantity;\r\n        batches[batch_count].cost = cost;\r\n        batches[batch_count].product = product;\r\n        batches[batch_count].manufacturer = manufacturer;\r\n        batches[batch_count].status = \"unrecieved\";\r\n        batches[batch_count].sender = sender;\r\n        batches[batch_count].recipient = recipient;\r\n    }\r\n\r\n    function associatePart(uint part_id, uint vehicle_id, address user) public {\r\n      //if the part and vehicle belong to the user\r\n      if(parts[part_id].owner == user && vehicles[vehicle_id].owner == user) {\r\n        //if the part does not belong to a vehicle\r\n        if(parts[part_id].vehicle_id == 0) {\r\n          //create an association\r\n          parts[part_id].vehicle_id = vehicle_id;\r\n          vehicles[vehicle_id].part_count++;\r\n          vehicles[vehicle_id].parts[vehicles[vehicle_id].part_count] = part_id;\r\n        } else {\r\n          //if the part already belongs to a vehicle find that vehicle\r\n          uint current_vehicle = parts[part_id].vehicle_id;\r\n          uint old_count = vehicles[vehicle_id].part_count + 1;\r\n          //remove the part from the current vehicle\r\n          for(uint i = 1; i <= old_count; i++) {\r\n            if(vehicles[current_vehicle].parts[i] == part_id) {\r\n              vehicles[current_vehicle].parts[i] = 0;\r\n            }\r\n          }\r\n          //add the part to the new vehicle\r\n          parts[part_id].vehicle_id = vehicle_id;\r\n          vehicles[vehicle_id].part_count++;\r\n          vehicles[vehicle_id].parts[vehicles[vehicle_id].part_count] = part_id;\r\n        }\r\n      } else {\r\n        revert(\"Part and/or vehicle does not belong to this user!\");\r\n      }\r\n    }\r\n\r\n    function getVehiclePart(uint vehicle_id, uint key) public view returns(uint) {\r\n      return vehicles[vehicle_id].parts[key];\r\n    }\r\n\r\n    function transferPart(address previous_owner, address new_owner, uint part_id) public {\r\n      parts[part_id].owner = new_owner;\r\n      transfer_count++;\r\n      transfers[transfer_count].id = transfer_count;\r\n      transfers[transfer_count].product_id = part_id;\r\n      transfers[transfer_count].p_serial_number = parts[part_id].serial_number;\r\n      transfers[transfer_count].product_type = \"part\";\r\n      transfers[transfer_count].previous_owner = previous_owner;\r\n      transfers[transfer_count].new_owner = new_owner;\r\n      transfers[transfer_count].timestamp = uint(now);\r\n    }\r\n\r\n    function recieveBatch(address new_owner, uint batch_id) public {\r\n      //if the recieveing user is the recipient of the batch\r\n      if(batches[batch_id].recipient == new_owner) {\r\n        transfer_count++;\r\n        //set the batch status as recieved\r\n        batches[batch_id].status = \"recieved\";\r\n        //record asset transfer\r\n        transfers[transfer_count].id = transfer_count;\r\n        transfers[transfer_count].product_id = batch_id;\r\n        transfers[transfer_count].p_serial_number = \"not applicable\";\r\n        transfers[transfer_count].product_type = \"batch\";\r\n        transfers[transfer_count].previous_owner = batches[batch_id].sender;\r\n        transfers[transfer_count].new_owner = batches[batch_id].recipient;\r\n        transfers[transfer_count].timestamp = uint(now);\r\n      } else {\r\n        //throw error\r\n        revert(\"You are not the recipient of this batch!\");\r\n      }\r\n    }\r\n\r\n    function transferVehicle(address previous_owner, address new_owner,\r\n          uint id) public {\r\n      transfer_count++;\r\n      transfers[transfer_count].id = transfer_count;\r\n      transfers[transfer_count].product_id = id;\r\n      transfers[transfer_count].p_serial_number = vehicles[id].vin;\r\n      transfers[transfer_count].product_type = \"vehicle\";\r\n      transfers[transfer_count].previous_owner = previous_owner;\r\n      transfers[transfer_count].new_owner = new_owner;\r\n      transfers[transfer_count].timestamp = uint(now);\r\n      vehicles[id].owner = new_owner;\r\n    }\r\n}\r\n",
  "sourcePath": "D:/Prototype1/contracts/ProductManagement.sol",
  "compiler": {
    "name": "solc",
    "version": "0.5.0+commit.1d4f565a.Emscripten.clang"
  },
  "schemaVersion": "3.0.1",
  "updatedAt": "2020-05-12T07:49:15.875Z",
  "devdoc": {
    "methods": {}
  },
  "userdoc": {
    "methods": {}
  }
}