{
  "contractName": "UserManagement",
  "abi": [
    {
      "constant": true,
      "inputs": [
        {
          "name": "",
          "type": "address"
        }
      ],
      "name": "participants",
      "outputs": [
        {
          "name": "id",
          "type": "uint256"
        },
        {
          "name": "name",
          "type": "string"
        },
        {
          "name": "organisation_name",
          "type": "string"
        },
        {
          "name": "role",
          "type": "string"
        },
        {
          "name": "participant_address",
          "type": "address"
        }
      ],
      "payable": false,
      "stateMutability": "view",
      "type": "function",
      "signature": "0x09e69ede"
    },
    {
      "constant": true,
      "inputs": [],
      "name": "order_count",
      "outputs": [
        {
          "name": "",
          "type": "uint256"
        }
      ],
      "payable": false,
      "stateMutability": "view",
      "type": "function",
      "signature": "0x2a1f1199"
    },
    {
      "constant": true,
      "inputs": [],
      "name": "participant_count",
      "outputs": [
        {
          "name": "",
          "type": "uint256"
        }
      ],
      "payable": false,
      "stateMutability": "view",
      "type": "function",
      "signature": "0x6c18fb81"
    },
    {
      "constant": true,
      "inputs": [
        {
          "name": "",
          "type": "uint256"
        }
      ],
      "name": "orders",
      "outputs": [
        {
          "name": "id",
          "type": "uint256"
        },
        {
          "name": "sender",
          "type": "address"
        },
        {
          "name": "recipient",
          "type": "address"
        },
        {
          "name": "content",
          "type": "string"
        },
        {
          "name": "status",
          "type": "string"
        },
        {
          "name": "cost",
          "type": "uint256"
        },
        {
          "name": "storage_provider",
          "type": "address"
        },
        {
          "name": "logistics_provider",
          "type": "address"
        },
        {
          "name": "storage_provider_approval",
          "type": "bool"
        },
        {
          "name": "logistics_provider_approval",
          "type": "bool"
        }
      ],
      "payable": false,
      "stateMutability": "view",
      "type": "function",
      "signature": "0xa85c38ef"
    },
    {
      "constant": false,
      "inputs": [
        {
          "name": "name",
          "type": "string"
        },
        {
          "name": "organisation_name",
          "type": "string"
        },
        {
          "name": "role",
          "type": "string"
        },
        {
          "name": "participant_address",
          "type": "address"
        }
      ],
      "name": "createParticipant",
      "outputs": [],
      "payable": false,
      "stateMutability": "nonpayable",
      "type": "function",
      "signature": "0x6e8c4b46"
    },
    {
      "constant": false,
      "inputs": [
        {
          "name": "sender",
          "type": "address"
        },
        {
          "name": "recipient",
          "type": "address"
        },
        {
          "name": "content",
          "type": "string"
        },
        {
          "name": "cost",
          "type": "uint256"
        },
        {
          "name": "storage_provider",
          "type": "address"
        },
        {
          "name": "logistics_provider",
          "type": "address"
        }
      ],
      "name": "createOrder",
      "outputs": [],
      "payable": false,
      "stateMutability": "nonpayable",
      "type": "function",
      "signature": "0x72b06b0c"
    },
    {
      "constant": true,
      "inputs": [
        {
          "name": "p_ad",
          "type": "address"
        }
      ],
      "name": "getOrders",
      "outputs": [
        {
          "name": "",
          "type": "uint256[]"
        }
      ],
      "payable": false,
      "stateMutability": "view",
      "type": "function",
      "signature": "0x093376fe"
    },
    {
      "constant": false,
      "inputs": [
        {
          "name": "p_ad",
          "type": "address"
        },
        {
          "name": "order_id",
          "type": "uint256"
        }
      ],
      "name": "approve",
      "outputs": [],
      "payable": false,
      "stateMutability": "nonpayable",
      "type": "function",
      "signature": "0x095ea7b3"
    }
  ],
  "bytecode": "0x608060405260008055600060015534801561001957600080fd5b5061166a806100296000396000f3fe60806040526004361061008d5763ffffffff7c0100000000000000000000000000000000000000000000000000000000600035041663093376fe8114610092578063095ea7b31461011557806309e69ede146101505780632a1f1199146102e75780636c18fb811461030e5780636e8c4b461461032357806372b06b0c146104ef578063a85c38ef146105d2575b600080fd5b34801561009e57600080fd5b506100c5600480360360208110156100b557600080fd5b5035600160a060020a0316610762565b60408051602080825283518183015283519192839290830191858101910280838360005b838110156101015781810151838201526020016100e9565b505050509050019250505060405180910390f35b34801561012157600080fd5b5061014e6004803603604081101561013857600080fd5b50600160a060020a0381351690602001356107d1565b005b34801561015c57600080fd5b506101836004803603602081101561017357600080fd5b5035600160a060020a0316610d49565b6040518086815260200180602001806020018060200185600160a060020a0316600160a060020a03168152602001848103845288818151815260200191508051906020019080838360005b838110156101e65781810151838201526020016101ce565b50505050905090810190601f1680156102135780820380516001836020036101000a031916815260200191505b50848103835287518152875160209182019189019080838360005b8381101561024657818101518382015260200161022e565b50505050905090810190601f1680156102735780820380516001836020036101000a031916815260200191505b50848103825286518152865160209182019188019080838360005b838110156102a657818101518382015260200161028e565b50505050905090810190601f1680156102d35780820380516001836020036101000a031916815260200191505b509850505050505050505060405180910390f35b3480156102f357600080fd5b506102fc610f1f565b60408051918252519081900360200190f35b34801561031a57600080fd5b506102fc610f25565b34801561032f57600080fd5b5061014e6004803603608081101561034657600080fd5b81019060208101813564010000000081111561036157600080fd5b82018360208201111561037357600080fd5b8035906020019184600183028401116401000000008311171561039557600080fd5b91908080601f01602080910402602001604051908101604052809392919081815260200183838082843760009201919091525092959493602081019350359150506401000000008111156103e857600080fd5b8201836020820111156103fa57600080fd5b8035906020019184600183028401116401000000008311171561041c57600080fd5b91908080601f016020809104026020016040519081016040528093929190818152602001838380828437600092019190915250929594936020810193503591505064010000000081111561046f57600080fd5b82018360208201111561048157600080fd5b803590602001918460018302840111640100000000831117156104a357600080fd5b91908080601f01602080910402602001604051908101604052809392919081815260200183838082843760009201919091525092955050509035600160a060020a03169150610f2b9050565b3480156104fb57600080fd5b5061014e600480360360c081101561051257600080fd5b600160a060020a03823581169260208101359091169181019060608101604082013564010000000081111561054657600080fd5b82018360208201111561055857600080fd5b8035906020019184600183028401116401000000008311171561057a57600080fd5b91908080601f016020809104026020016040519081016040528093929190818152602001838380828437600092019190915250929550508235935050600160a060020a03602083013581169260400135169050611046565b3480156105de57600080fd5b506105fc600480360360208110156105f557600080fd5b503561136e565b604051808b81526020018a600160a060020a0316600160a060020a0316815260200189600160a060020a0316600160a060020a03168152602001806020018060200188815260200187600160a060020a0316600160a060020a0316815260200186600160a060020a0316600160a060020a03168152602001851515151581526020018415151515815260200183810383528a818151815260200191508051906020019080838360005b838110156106bd5781810151838201526020016106a5565b50505050905090810190601f1680156106ea5780820380516001836020036101000a031916815260200191505b5083810382528951815289516020918201918b019080838360005b8381101561071d578181015183820152602001610705565b50505050905090810190601f16801561074a5780820380516001836020036101000a031916815260200191505b509c5050505050505050505050505060405180910390f35b600160a060020a0381166000908152600260209081526040918290206005018054835181840281018401909452808452606093928301828280156107c557602002820191906000526020600020905b8154815260200190600101908083116107b1575b50505050509050919050565b6107d9611516565b60008281526003602081815260409283902083516101408101855281548152600180830154600160a060020a039081168386015260028085015490911683880152948301805487516101009382161593909302600019011695909504601f8101859004850282018501909652858152909491936060860193919290918301828280156108a65780601f1061087b576101008083540402835291602001916108a6565b820191906000526020600020905b81548152906001019060200180831161088957829003601f168201915b505050918352505060048201805460408051602060026001851615610100026000190190941693909304601f810184900484028201840190925281815293820193929183018282801561093a5780601f1061090f5761010080835404028352916020019161093a565b820191906000526020600020905b81548152906001019060200180831161091d57829003601f168201915b5050509183525050600582015460208201526006820154600160a060020a039081166040830152600790920154918216606082015260ff7401000000000000000000000000000000000000000083048116151560808301527501000000000000000000000000000000000000000000909204909116151560a09091015280519091501515610a12576040805160e560020a62461bcd02815260206004820152601560248201527f4f7264657220646f6573206e6f742065786973742e0000000000000000000000604482015290519081900360640190fd5b60405180807f6177616974696e6720617070726f76616c0000000000000000000000000000008152506011019050604051809103902081608001516040516020018082805190602001908083835b60208310610a7f5780518252601f199092019160209182019101610a60565b6001836020036101000a038019825116818451168082178552505050505050905001915050604051602081830303815290604052805190602001201415610cce578060c00151600160a060020a031683600160a060020a0316148015610aed57506101008101511515600114155b15610b3b576000828152600360205260409020600701805474ff0000000000000000000000000000000000000000191674010000000000000000000000000000000000000000179055610cc9565b8060e00151600160a060020a031683600160a060020a0316148015610b635750610120810151155b15610bb3576000828152600360205260409020600701805475ff00000000000000000000000000000000000000000019167501000000000000000000000000000000000000000000179055610cc9565b8060400151600160a060020a031683600160a060020a0316148015610bdf575061012081015115156001145b8015610bf2575061010081015115156001145b15610c5357604080518082018252600881527f617070726f766564000000000000000000000000000000000000000000000000602080830191825260008681526003909152929092209051610c4d9260049092019190611569565b50610cc9565b6040805160e560020a62461bcd02815260206004820152603260248201527f596f7520646f206e6f742068617665207065726d697373696f6e7320646f206160448201527f7070726f76652074686973206f726465722e0000000000000000000000000000606482015290519081900360840190fd5b610d44565b6040805160e560020a62461bcd02815260206004820152602560248201527f54686973206f726465722068617320616c7265616479206265656e206170707260448201527f6f7665642e000000000000000000000000000000000000000000000000000000606482015290519081900360840190fd5b505050565b60026020818152600092835260409283902080546001808301805487519281161561010002600019011695909504601f8101859004850282018501909652858152909491939092909190830182828015610de45780601f10610db957610100808354040283529160200191610de4565b820191906000526020600020905b815481529060010190602001808311610dc757829003601f168201915b50505060028085018054604080516020601f6000196101006001871615020190941695909504928301859004850281018501909152818152959695945090925090830182828015610e765780601f10610e4b57610100808354040283529160200191610e76565b820191906000526020600020905b815481529060010190602001808311610e5957829003601f168201915b5050505060038301805460408051602060026001851615610100026000190190941693909304601f8101849004840282018401909252818152949594935090830182828015610f065780601f10610edb57610100808354040283529160200191610f06565b820191906000526020600020905b815481529060010190602001808311610ee957829003601f168201915b50505060049093015491925050600160a060020a031685565b60015481565b60005481565b600160a060020a03811660009081526002602090815260409091208551610f5a92600190920191870190611569565b50600160a060020a03811660009081526002602081815260409092208551610f8a93919092019190860190611569565b50600160a060020a03811660009081526002602090815260409091208351610fba92600390920191850190611569565b50600160a060020a03811660009081526002602090815260409091208551610fea92600190920191870190611569565b50600160a060020a038116600081815260026020526040902060048101805473ffffffffffffffffffffffffffffffffffffffff191690921790915560608051909161103e916005909101906080906115e7565b505050505050565b84600160a060020a031686600160a060020a031614156110d6576040805160e560020a62461bcd02815260206004820152603460248201527f5468652073656e64657220616e6420726563697069656e74206164647265737360448201527f2063616e6e6f74206265207468652073616d6521000000000000000000000000606482015290519081900360840190fd5b60018054810180825560008181526003602081815260408084209485559385018054600160a060020a03808e1673ffffffffffffffffffffffffffffffffffffffff1992831617909255865485528585206002018054928d16929091169190911790558454835283832060050188905593548252919020865161116193919092019190870190611569565b50604080518082018252601181527f6177616974696e6720617070726f76616c0000000000000000000000000000006020808301918252600154600090815260039091529290922090516111bb9260049092019190611569565b506001805460009081526003602090815260408083206006018054600160a060020a0380891673ffffffffffffffffffffffffffffffffffffffff19928316811790935586548652838620600790810180548a8416941693909317909255865486528386208201805474ff00000000000000000000000000000000000000001916905586548652838620909101805475ff000000000000000000000000000000000000000000191690558b811680865260028552838620875460059182018054808b0182559089528789200155918c168652928520865491018054968701815585529290932090930155148015906112c5575081600160a060020a031685600160a060020a031614155b156112fd57600160a060020a038216600090815260026020908152604082206001805460059092018054918201815584529190922001555b80600160a060020a031686600160a060020a031614158015611331575080600160a060020a031685600160a060020a031614155b1561103e57600160a060020a0316600090815260026020908152604082206001805460059092018054918201815584529190922001555050505050565b6003602081815260009283526040928390208054600180830154600280850154968501805489516101009582161595909502600019011691909104601f81018790048702840187019098528783529296600160a060020a039182169691909116949192918301828280156114235780601f106113f857610100808354040283529160200191611423565b820191906000526020600020905b81548152906001019060200180831161140657829003601f168201915b5050505060048301805460408051602060026001851615610100026000190190941693909304601f81018490048402820184019092528181529495949350908301828280156114b35780601f10611488576101008083540402835291602001916114b3565b820191906000526020600020905b81548152906001019060200180831161149657829003601f168201915b5050506005840154600685015460079095015493949093600160a060020a039182169350908116915060ff74010000000000000000000000000000000000000000820481169175010000000000000000000000000000000000000000009004168a565b60408051610140810182526000808252602082018190529181018290526060808201819052608082015260a0810182905260c0810182905260e08101829052610100810182905261012081019190915290565b828054600181600116156101000203166002900490600052602060002090601f016020900481019282601f106115aa57805160ff19168380011785556115d7565b828001600101855582156115d7579182015b828111156115d75782518255916020019190600101906115bc565b506115e3929150611621565b5090565b8280548282559060005260206000209081019282156115d757916020028201828111156115d75782518255916020019190600101906115bc565b61163b91905b808211156115e35760008155600101611627565b9056fea165627a7a723058207cf98e70aaf604d52449872afb4a9cc5144794f45e006933c9cab2770408ca640029",
  "source": "pragma solidity ^0.5.0;\n\ncontract UserManagement {\n\n    uint public participant_count = 0;\n    uint public order_count = 0;\n\n    //Define a Participant\n    struct participant {\n        uint id;\n        string name;\n        string organisation_name;\n        string role;\n        address participant_address;\n        uint[] orders;\n    }\n\n    //Store Participants\n    mapping(address => participant) public participants;\n\n    struct order {\n        uint id;\n        address sender;\n        address recipient;\n        string content;\n        string status;\n        uint cost;\n        address storage_provider;\n        address logistics_provider;\n        bool storage_provider_approval;\n        bool logistics_provider_approval;\n    }\n\n    //store orders\n    mapping(uint => order) public orders;\n\n    function createParticipant(string memory name, string memory organisation_name,\n        string memory role, address participant_address) public {\n        participants[participant_address].name = name;\n        participants[participant_address].organisation_name = organisation_name;\n        participants[participant_address].role = role;\n        participants[participant_address].name = name;\n        participants[participant_address].participant_address = participant_address;\n        uint[] memory orders;\n        participants[participant_address].orders = orders;\n    }\n\n    function createOrder(address sender, address recipient, string memory content,\n            uint cost, address storage_provider, address logistics_provider) public {\n        //if the sender address is equal to the recipient address\n        if(sender == recipient) {\n          revert(\"The sender and recipient address cannot be the same!\");\n        }\n        //if one of the users does not exist\n        /*\n        if(participants[sender].participant_address == address(0x0) ||\n          participants[recipient].participant_address == address(0x0) ||\n          participants[storage_provider].participant_address == address(0x0) ||\n          participants[logistics_provider].participant_address == address(0x0)) {\n          revert(\"One of the participants provided does not exist.\");\n\n        } else {\n        */\n          order_count++;\n          orders[order_count].id = order_count;\n          orders[order_count].sender = sender;\n          orders[order_count].recipient = recipient;\n          orders[order_count].cost = cost;\n          orders[order_count].content = content;\n          orders[order_count].status = \"awaiting approval\";\n          orders[order_count].storage_provider = storage_provider;\n          orders[order_count].logistics_provider = logistics_provider;\n          orders[order_count].storage_provider_approval = false;\n          orders[order_count].logistics_provider_approval = false;\n          //create a reference to this order for each participant\n          participants[sender].orders.push(order_count);\n          participants[recipient].orders.push(order_count);\n        //}\n        if(sender != storage_provider && recipient != storage_provider) {\n          participants[storage_provider].orders.push(order_count);\n        }\n        if(sender != logistics_provider && recipient != logistics_provider) {\n          participants[logistics_provider].orders.push(order_count);\n        }\n    }\n\n\n\n    function getOrders(address p_ad) public view returns (uint[] memory){\n        return participants[p_ad].orders;\n    }\n\n\n\n\n    function approve(address p_ad, uint order_id) public {\n      order memory ord = orders[order_id];\n      //check if the order exists\n      if(ord.id == 0) {\n        revert(\"Order does not exist.\");\n      }\n      //if the order is not approved\n      if(keccak256(abi.encodePacked(ord.status))\n        == keccak256(\"awaiting approval\")) {\n        //if the approving user is a storage provider\n        if((p_ad == ord.storage_provider) && (ord.storage_provider_approval != true)) {\n          orders[order_id].storage_provider_approval = true;\n        }\n        //if the approving user is a logistics_provider\n        else if ((p_ad == ord.logistics_provider) && ord.logistics_provider_approval == false) {\n          orders[order_id].logistics_provider_approval = true;\n        }\n        //if the approving user is a storage provider\n        else if ((p_ad == ord.recipient) && (ord.logistics_provider_approval == true)\n          && (ord.storage_provider_approval == true)) {\n          orders[order_id].status = \"approved\";\n        } else {\n          revert(\"You do not have permissions do approve this order.\");\n        }\n      } else {\n        revert(\"This order has already been approved.\");\n      }\n    }\n}\n",
  "sourcePath": "D:/Prototype1/contracts/UserManagement.sol",
  "compiler": {
    "name": "solc",
    "version": "0.5.0+commit.1d4f565a.Emscripten.clang"
  },
  "schemaVersion": "3.0.1",
  "updatedAt": "2020-05-12T07:49:15.852Z",
  "devdoc": {
    "methods": {}
  },
  "userdoc": {
    "methods": {}
  }
}